:100000000C945D000C9485000C9485000C94850084
:100010000C9485000C9485000C9485000C9485004C
:100020000C9485000C9485000C9485000C94560566
:100030000C9485000C9485000C9485000C9485002C
:100040000C940C050C9485000C94DA040C94B40404
:100050000C9485000C9485000C9485000C9485000C
:100060000C9412060C9485000000000800020100A8
:100070000003040700000000000000000000000072
:10008000250028002B0000000000240027002A0083
:10009000040404040404040402020202020203032E
:1000A0000303030301020408102040800102040836
:1000B0001020010204081020310711241FBECFEFC9
:1000C000D8E0DEBFCDBF11E0A0E0B1E0E6E7F7E1A8
:1000D00002C005900D92A433B107D9F722E0A4E342
:1000E000B1E001C01D92A53DB207E1F710E0CDE5FA
:1000F000D0E004C02197FE010E94B30BCC35D1079C
:10010000C9F70E94A2070C94B90B0C9400003F920F
:100110004F925F926F927F928F929F92AF92BF9217
:10012000CF92DF92EF92FF920F931F93CF93DF93C3
:10013000CDB7DEB729970FB6F894DEBF0FBECDBF9F
:100140004B015C01142F20E030E0A9010E94D2098C
:10015000312C04E087FF07C0B7FAB094B7F8B09429
:100160003324339403E020E030E040E05FE3C50156
:10017000B4010E9466090E94490A6B017C011E823B
:100180001D8281E090E0A0E0B0E089839A83AB8398
:10019000BC83E02FF0E0412E512C712C612CAD81FD
:1001A000BE81AE17BF0794F429813A814B815C81EF
:1001B000C301B2010E94970B69837A838B839C836E
:1001C0008D819E8101969E838D83E9CF412C512C98
:1001D00040E8642E4FE3742E1986812F90E0B0E042
:1001E000A0E08D839E83AF83B88789819A81AB819C
:1001F000BC81C816D906EA06FB0610F19985915014
:1002000099876D817E818F8198850E947A0A9B01F2
:10021000AC01C301B2010E94D7092B013C01AC0122
:100220009B01C501B4010E942A0B20E030E040E0B0
:100230005FE30E9466090E94490A6B017C01D5CFE9
:1002400020E030E040E85FE3C301B2010E94D20940
:1002500087FF2EC080E490E09093C4028093C30295
:100260009093C6028093C5021092C8021092C702F2
:100270009093CA028093C9029093CC028093CB02E0
:1002800029960FB6F894DEBF0FBECDBFDF91CF9198
:100290001F910F91FF90EF90DF90CF90BF90AF90A4
:1002A0009F908F907F906F905F904F903F900895B8
:1002B000C114D104E104F104D9F48FE390E09093E8
:1002C000CC028093CB0231107AC093E09983F981FC
:1002D000F7FDD6CFF53044F4EF2FF0E0EE0FFF1F1F
:1002E000ED53FD4F11821082E981E150E983EFCF98
:1002F000B4E0B983B12C412E512C712C612CE985CD
:10030000EE2319F099249394EB11912CA980FA2DE6
:10031000F150F9838F2E84E08A15C8F00A2D10E081
:10032000000F111F0D531D4FC701B601A30192010C
:100330000E94340960507F4F979499249794DB0171
:100340008C91982A892D90E0F80191838083F9811E
:10035000F23071F4AA94AA94A98284E0881540F03E
:10036000E82DF0E0EE0FFF1FED53FD4F11821082DC
:10037000C701B601A30192010E94340969017A0103
:10038000B394C114D104E104F10409F0B8CFA985F4
:10039000AB1508F0B4CF332009F499CFE981AE2F23
:1003A000A150A983E53008F092CFF0E0EE0FFF1FD7
:1003B000ED53FD4F80E490E09183808388CFB2E0DD
:1003C000B983E3E0F2CF2091F10181E0213208F01E
:1003D00044C08091CD018111FCCF8091F00192E069
:1003E0009093CD0191E09093CC019FEF9093CB013E
:1003F0001092CA012093C901A0EDB1E0E9EAF1E051
:1004000090E0291331C01092A8019091A801880FA3
:10041000892B8093A8018091A701813049F5109222
:10042000A7018091A8018093BB008091BC0083FD4F
:10043000F8CF85EC8093BC008091CD018230E1F350
:100440008091CB018F3FB1F08091CB018032A1F040
:100450008091CB01803391F084E01092CF01109213
:10046000F1011092CE0108953D9131939F5FC9CF64
:1004700085EEE0CF80E0F1CF82E0EFCF83E0EDCFFB
:10048000E091C002EC3088F54091C10228E830E0EC
:10049000241B310947FD3395220F331F220F331FD1
:1004A0008217930784F04091C20228E532E0241BB2
:1004B000310947FD3395220F331F220F331F821757
:1004C00093070CF49C0122503109220F331F4FB7C0
:1004D000F8948E2F90E0FC01EE0FFF1FE80FF91F3C
:1004E000E556FD4F328321834FBF08950895089547
:1004F000AF92BF92CF92DF92EF92FF920F931F9332
:10050000CF93DF936C017B018B01040F151FEB016F
:100510005E01AE18BF08C017D10759F06991D60126
:10052000ED91FC910190F081E02DC6010995892B98
:1005300079F7C501DF91CF911F910F91FF90EF9057
:10054000DF90CF90BF90AF900895FC01538D448D04
:10055000252F30E0842F90E0821B930B541710F06E
:10056000CF96089501970895FC01918D828D98177B
:1005700061F0A28DAE0FBF2FB11D5D968C91928D53
:100580009F5F9F73928F90E008958FEF9FEF089584
:10059000FC01918D828D981731F0828DE80FF11D4D
:1005A000858D90E008958FEF9FEF0895FC01918D68
:1005B000228D892F90E0805C9F4F821B91098F7361
:1005C0009927089582EF91E00E94D60221E0892BBD
:1005D00009F420E0822F089580E090E0892B29F033
:1005E0000E94E20281110C9400000895FC01A48D88
:1005F000A80FB92FB11DA35ABF4F2C91848D90E045
:1006000001968F739927848FA689B7892C93A08927
:10061000B1898C91837080648C93938D848D9813B1
:1006200006C00288F389E02D80818F7D8083089544
:10063000EF92FF920F931F93CF93DF93EC0181E032
:10064000888F9B8D8C8D98131AC0E889F9898081D9
:1006500085FF15C09FB7F894EE89FF896083E8890C
:10066000F98980818370806480839FBF81E090E0FE
:10067000DF91CF911F910F91FF90EF900895F62E8B
:100680000B8D10E00F5F1F4F0F731127E02E8C8D25
:100690008E110CC00FB607FCFACFE889F98980816A
:1006A00085FFF5CFCE010E94F602F1CFEB8DEC0F66
:1006B000FD2FF11DE35AFF4FF0829FB7F8940B8F87
:1006C000EA89FB8980818062CFCFCF93DF93EC01F1
:1006D000888D8823B9F0AA89BB89E889F9898C912A
:1006E00085FD03C0808186FD0DC00FB607FCF7CFE6
:1006F0008C9185FFF2CF808185FFEDCFCE010E94E6
:10070000F602E9CFDF91CF91089590E0FC01E8591E
:10071000FF4F2491FC01EC55FF4F3491FC01E05751
:10072000FF4FE491EE23C9F0222339F0233001F189
:10073000A8F4213019F1223029F1F0E0EE0FFF1F6B
:10074000E458FF4FA591B4918FB7F894EC916111E3
:1007500026C030953E233C938FBF08952730A9F0E3
:100760002830C9F0243049F7809180008F7D03C084
:10077000809180008F7780938000DFCF84B58F7762
:1007800084BDDBCF84B58F7DFBCF8091B0008F77A8
:100790008093B000D2CF8091B0008F7DF9CF3E2BF7
:1007A000DACF85ED8093BC008091BC0084FDFCCF46
:1007B0001092CD01089520917401260F3327331F25
:1007C00021323105ECF42091CD01FC0190E080E074
:1007D000243069F082E00895A09174012191AC0168
:1007E0004C5A5E4FA40FB52FB11D2C93019686175E
:1007F00098F380917401680F6093740180E008950C
:1008000081E008950895E091A6018091A501E8177F
:1008100030F4F0E0EC5CFE4F808190E008958FEFC3
:100820009FEF08959091A6018091A5012FEF3FEFD2
:10083000981748F4E92FF0E0EC5CFE4F208130E09F
:100840009F5F9093A601C90108958091A5019091A1
:10085000A601891B990B0895CF92DF92EF92FF9228
:100860000F931F93CF93DF937C01CB018A012091DB
:10087000CE01222389F0EB016B01C40ED51ECC15ED
:10088000DD0569F06991D701ED91FC910190F0814E
:10089000E02DC7010995F3CF642F0E94DB03C80147
:1008A000DF91CF911F910F91FF90EF90DF90CF904C
:1008B0000895CF93DF931F92CDB7DEB76983209160
:1008C000CE012223F9F02091F101203258F021E0ED
:1008D00030E0FC013383228390E080E00F90DF91D1
:1008E000CF9108958091CF01E82FF0E0E053FE4FC3
:1008F000998190838F5F8093CF018093F10181E094
:1009000090E0ECCF61E0CE0101960E94DB03F7CFCF
:10091000CF93DF938091D30291E09093CE018093A7
:10092000F0011092CF011092F10160E08FE892E0A7
:100930000E945904C3ECD2E0688122968FE892E0CD
:100940000E945904FE01329761818FE892E00E9473
:10095000590482E0C33DD80779F7DF91CF910C9419
:10096000E30190E080E008951F920F920FB60F927E
:1009700011242F933F934F935F936F937F938F93A4
:100980009F93AF93BF93EF93FF9382EF91E00E9409
:10099000F602FF91EF91BF91AF919F918F917F915F
:1009A0006F915F914F913F912F910F900FBE0F90DC
:1009B0001F9018951F920F920FB60F9211242F932C
:1009C0008F939F93EF93FF93E0910202F0910302C4
:1009D0008081E0910802F091090282FD1BC09081A4
:1009E00080910B028F5F8F7320910C02821741F070
:1009F000E0910B02F0E0EE50FE4F958F80930B02DA
:100A0000FF91EF919F918F912F910F900FBE0F90BB
:100A10001F9018958081F4CF1F920F920FB60F92FE
:100A200011242F933F938F939F93AF93BF93809104
:100A30009D0190919E01A0919F01B091A0013091E4
:100A40009C0123E0230F2D3758F50196A11DB11D00
:100A500020939C0180939D0190939E01A0939F0100
:100A6000B093A0018091980190919901A0919A0171
:100A7000B0919B010196A11DB11D809398019093A7
:100A80009901A0939A01B0939B01BF91AF919F915F
:100A90008F913F912F910F900FBE0F901F9018953F
:100AA00026E8230F0296A11DB11DD2CF1F920F92EF
:100AB0000FB60F9211242F933F934F935F936F9331
:100AC0007F938F939F93AF93BF93CF93DF93EF93D6
:100AD000FF9380919701C091BF02D0E087FF24C0AF
:100AE0001092850010928400809197018F5F80930F
:100AF000970180919701082E000C990B8C179D0788
:100B000024F4809197018C30C4F1809184009091FD
:100B10008500049680349C4908F47AC08091840052
:100B200090918500049676C080919701082E000C64
:100B3000990B8C179D07C4F6E09197018E2FEE0F4D
:100B4000990BFC01EE0FFF1FE80FF91FE556FD4F53
:100B5000808186FFC9CFE09197018E2FEE0F990B10
:100B6000FC01EE0FFF1FE80FF91FE556FD4F8081D6
:100B700060E08F730E948503B7CF2091840030918D
:100B80008500E09197018E2FEE0F990BFC01EE0F7F
:100B9000FF1FE80FF91FE556FD4F81819281820FFB
:100BA000931F9093890080938800E09197018E2F86
:100BB000EE0F990BFC01EE0FFF1FE80FF91FE55632
:100BC000FD4F808186FF11C0E09197018E2FEE0FBF
:100BD000990BFC01EE0FFF1FE80FF91FE556FD4FC3
:100BE000808161E08F730E948503FF91EF91DF9117
:100BF000CF91BF91AF919F918F917F916F915F91B5
:100C00004F913F912F910F900FBE0F901F9018950D
:100C100080E49CE990938900809388008FEF809313
:100C20009701E3CF1F920F920FB60F9211242F93CB
:100C30003F934F935F936F937F938F939F93AF9364
:100C4000BF93EF93FF938091B900887F803609F4BA
:100C50004AC0F0F5883209F4A7C018F5803109F4CC
:100C60009BC0B8F4882309F4F9C0883009F494C013
:100C7000FF91EF91BF91AF919F918F917F916F9174
:100C80005F914F913F912F910F900FBE0F901F904A
:100C90001895883109F488C0803251F78093CB01D0
:100CA00014C0803409F49DC040F48033B9F3883314
:100CB000F9F68093CB0185ECB0C0803509F485C08E
:100CC000883509F496C0883499F60E94D103D0CFB4
:100CD000883909F48CC038F5883729F050F4883603
:100CE00011F0803729F683E08093CD0110929601B0
:100CF00057C0883809F47BC0803919F0803809F072
:100D0000B7CF80919601803208F071C0E0919601D2
:100D100081E08E0F809396018091BB00F0E0EA584D
:100D2000FE4F80833DC0803B39F0E0F4803A09F407
:100D300079C0883A09F09CCF84E08093CD0110926D
:100D4000750110927401E091A301F091A40109953D
:100D50008091740181110FC081E080937401109221
:100D6000540109C0803C09F4A6CF883C09F4A3CF04
:100D7000883B09F07DCFE091750181E08E0F809373
:100D80007501F0E0EC5AFE4F80818093BB0090919A
:100D900075018091740129C08091A8018093BB00E6
:100DA00085EC8093BC0064CF9091CA018091C90109
:100DB000981758F5E091CA0181E08E0F8093CA011F
:100DC000F0E0E755FE4F8081E9CFE091CA0181E074
:100DD0008E0F8093CA018091BB00F0E0E755FE4F73
:100DE00080839091CA018091C9019817C8F285E863
:100DF000D8CFE091CA0181E08E0F8093CA01809123
:100E0000BB00F0E0E755FE4F80838091CC0181115B
:100E10005CCF81E08093A70184EA8093BC001092AC
:100E2000CD0126CF85EC8093BC001092CD0180913E
:100E30009601803230F4E0919601F0E0EA58FE4FDE
:100E400010826091960170E0E091A101F091A20101
:100E500086E791E00995109296010ACF1092CB0196
:100E600034CF1092F5011092F40188EE93E0A0E0E7
:100E7000B0E08093F6019093F701A093F801B0934E
:100E8000F90124E131E03093F3012093F20125ECE4
:100E900030E03093FF012093FE0124EC30E03093EA
:100EA00001022093000220EC30E0309303022093F3
:100EB000020221EC30E0309305022093040222EC80
:100EC00030E0309307022093060226EC30E03093A6
:100ED00009022093080210920B0210920C02109249
:100EE0000D0210920E0210929202109291028093C3
:100EF000930290939402A0939502B093960286E297
:100F000091E09093900280938F021092D40280918E
:100F1000BF028C3098F491E0980F9093BF028093B9
:100F2000C00290E0FC01EE0FFF1FE80FF91FE5562D
:100F3000FD4F88EB9BE09283818308958FEF809330
:100F4000C0020895789484B5826084BD84B58160C0
:100F500084BD85B5826085BD85B5816085BD809184
:100F60006E00816080936E001092810080918100FC
:100F700082608093810080918100816080938100F4
:100F8000809180008160809380008091B1008460B6
:100F90008093B1008091B00081608093B000809117
:100FA0007A00846080937A0080917A0082608093D6
:100FB0007A0080917A00816080937A0080917A0033
:100FC000806880937A001092C100E0910202F09153
:100FD000030282E08083E091FE01F091FF01108224
:100FE000E0910002F09101028FEC808310920A02DE
:100FF000E0910602F091070286E08083E09104020E
:10100000F0910502808180618083E0910402F0917B
:101010000502808188608083E0910402F0910502DE
:10102000808180688083E0910402F09105028081D4
:101030008F7D808380E78093D3021092A601109267
:10104000A5011092CF011092F1011092CD01C1E0E3
:10105000C093CC011092A70161E082E10E94850358
:1010600061E083E10E9485038091B9008E7F8093C7
:10107000B9008091B9008D7F8093B90088E4809396
:10108000B80085E48093BC0086E792E09093A401C9
:101090008093A30187E792E09093A2018093A1013E
:1010A0008091D302C093CE018093F0011092CF01C2
:1010B0001092F10161E28FE892E00E9459040E94CF
:1010C000E3018091D302C093CE018093F00110928E
:1010D000CF011092F10161E88FE892E00E9459047B
:1010E0000E94E3018091D302C093CE018093F0016E
:1010F0001092CF011092F1016FEE8FE892E00E9402
:1011000059040E94E3014AE060E070E0CB010E94D4
:1011100087000E9488048091C0028C3008F068C06B
:10112000EDEAF0E02491E9E9F0E08491882399F078
:1011300090E0880F991FFC01EA57FF4FA591B491E9
:10114000FC01E458FF4F859194918FB7F894EC918E
:10115000E22BEC938FBF8091C002282F30E0F90181
:10116000EE0FFF1FE20FF31FE556FD4F9081907CBD
:10117000996090831092C1021092C2022CE0622FFB
:101180000E94A70B829FB001112430E020E0AB0148
:10119000420F531FFA01EE0FFF1FE40FF51FE55634
:1011A000FD4F908196FD16C02F5F3F4F2C303105CB
:1011B00071F781110FC01092800082E0809381004E
:1011C0001092850010928400B19A80916F00826025
:1011D00080936F00E091C0028E2F90E0FC01EE0F33
:1011E000FF1FE80FF91FE556FD4F80818064808363
:1011F000C0E0D0E082EF91E00E94D602892B91F00E
:1012000082EF91E00E94B4020097A9F44AE060E006
:1012100070E0CB010E9487000E9488048CED95E06D
:101220000E944002209731F30E94E202882311F3CA
:101230000E940000DFCF0197A9F74AE060E070E06C
:1012400080E89FE30E9487000E9488048CE697E074
:10125000E7CF0E945609A59F900DB49F900DA49FC3
:10126000800D911D11240895A1E21A2EAA1BBB1B0B
:10127000FD010DC0AA1FBB1FEE1FFF1FA217B30762
:10128000E407F50720F0A21BB30BE40BF50B661F78
:10129000771F881F991F1A9469F76095709580953C
:1012A00090959B01AC01BD01CF010895A29FB001B3
:1012B000B39FC001A39F700D811D1124911DB29F8A
:1012C000700D811D1124911D08955058BB27AA2728
:1012D0000E947D090C94F00A0E94E20A38F00E94F4
:1012E000E90A20F039F49F3F19F426F40C94DF0A40
:1012F0000EF4E095E7FB0C94D90AE92F0E94010B4C
:1013000058F3BA17620773078407950720F079F43A
:10131000A6F50C94230B0EF4E0950B2EBA2FA02DFE
:101320000B01B90190010C01CA01A0011124FF2792
:10133000591B99F0593F50F4503E68F11A16F0408D
:10134000A22F232F342F4427585FF3CF469537958C
:101350002795A795F0405395C9F77EF41F16BA0B51
:10136000620B730B840BBAF09150A1F0FF0FBB1FFF
:10137000661F771F881FC2F70EC0BA0F621F731F48
:10138000841F48F4879577956795B795F7959E3FA5
:1013900008F0B0CF9395880F08F09927EE0F979536
:1013A000879508950E94B50A08F481E008950E9487
:1013B000EB090C94F00A0E94E90A58F00E94E20A34
:1013C00040F029F45F3F29F00C94D90A51110C9494
:1013D000240B0C94DF0A0E94010B68F39923B1F3EC
:1013E000552391F3951B550BBB27AA27621773074B
:1013F000840738F09F5F5F4F220F331F441FAA1FDF
:10140000A9F335D00E2E3AF0E0E832D0915050409A
:10141000E695001CCAF72BD0FE2F29D0660F771F48
:10142000881FBB1F261737074807AB07B0E809F02E
:10143000BB0B802DBF01FF2793585F4F3AF09E3FB3
:10144000510578F00C94D90A0C94240B5F3FE4F317
:10145000983ED4F3869577956795B795F7959F5FF6
:10146000C9F7880F911D9695879597F90895E1E042
:10147000660F771F881FBB1F621773078407BA07A1
:1014800020F0621B730B840BBA0BEE1F88F7E095FC
:1014900008950E94090B88F09F5798F0B92F99275B
:1014A000B751B0F0E1F0660F771F881F991F1AF04F
:1014B000BA95C9F714C0B13091F00E94230BB1E086
:1014C00008950C94230B672F782F8827B85F39F085
:1014D000B93FCCF3869577956795B395D9F73EF4E8
:1014E00090958095709561957F4F8F4F9F4F089590
:1014F000E89409C097FB3EF49095809570956195AE
:101500007F4F8F4F9F4F9923A9F0F92F96E9BB2763
:101510009395F695879577956795B795F111F8CFDF
:10152000FAF4BB0F11F460FF1BC06F5F7F4F8F4F4A
:101530009F4F16C0882311F096E911C0772321F040
:101540009EE8872F762F05C0662371F096E8862FD8
:1015500070E060E02AF09A95660F771F881FDAF72F
:10156000880F9695879597F90895990F0008550F5C
:10157000AA0BE0E8FEEF16161706E807F907C0F019
:1015800012161306E407F50798F0621B730B840B21
:10159000950B39F40A2661F0232B242B252B21F4FB
:1015A00008950A2609F4A140A6958FEF811D811D9B
:1015B000089597F99F6780E870E060E008959FEFD5
:1015C00080EC089500240A941616170618060906DA
:1015D000089500240A9412161306140605060895A9
:1015E000092E0394000C11F4882352F0BB0F40F431
:1015F000BF2B11F460FF04C06F5F7F4F8F4F9F4F71
:10160000089557FD9058440F551F59F05F3F71F0F2
:101610004795880F97FB991F61F09F3F79F0879559
:101620000895121613061406551FF2CF4695F1DFE2
:1016300008C0161617061806991FF1CF8695710572
:10164000610508940895E894BB2766277727CB01A6
:1016500097F908950E943D0B0C94F00A0E94E20A4B
:1016600038F00E94E90A20F0952311F00C94D90A71
:101670000C94DF0A11240C94240B0E94010B70F3CC
:10168000959FC1F3950F50E0551F629FF001729F27
:10169000BB27F00DB11D639FAA27F00DB11DAA1F36
:1016A000649F6627B00DA11D661F829F2227B00D83
:1016B000A11D621F739FB00DA11D621F839FA00D0E
:1016C000611D221F749F3327A00D611D231F849F5E
:1016D000600D211D822F762F6A2F11249F575040B5
:1016E0009AF0F1F088234AF0EE0FFF1FBB1F661F30
:1016F000771F881F91505040A9F79E3F510580F0F9
:101700000C94D90A0C94240B5F3FE4F3983ED4F375
:10171000869577956795B795F795E7959F5FC1F79C
:10172000FE2B880F911D9695879597F90895DB01FB
:101730008F939F930E942909BF91AF91A29F800D23
:10174000911DA39F900DB29F900D11240895991B98
:1017500079E004C0991F961708F0961B881F7A95A8
:10176000C9F780950895EE0FFF1F0590F491E02DC5
:061770000994F894FFCF7C
:101776003F065B4F666D7D077F6F777C395E7971BB
:101786000000000018037802A5026503D602B40221
:10179600C8020000000059042C04B1040204250408
:0417A6001204030422
:107E0000112484B714BE81FFF0D085E080938100F7
:107E100082E08093C00088E18093C10086E0809377
:107E2000C20080E18093C4008EE0C9D0259A86E02C
:107E300020E33CEF91E0309385002093840096BBD3
:107E4000B09BFECF1D9AA8958150A9F7CC24DD24C4
:107E500088248394B5E0AB2EA1E19A2EF3E0BF2EE7
:107E6000A2D0813461F49FD0082FAFD0023811F036
:107E7000013811F484E001C083E08DD089C08234E0
:107E800011F484E103C0853419F485E0A6D080C0E4
:107E9000853579F488D0E82EFF2485D0082F10E0AE
:107EA000102F00270E291F29000F111F8ED06801E7
:107EB0006FC0863521F484E090D080E0DECF843638
:107EC00009F040C070D06FD0082F6DD080E0C81688
:107ED00080E7D80618F4F601B7BEE895C0E0D1E017
:107EE00062D089930C17E1F7F0E0CF16F0E7DF06D8
:107EF00018F0F601B7BEE89568D007B600FCFDCFD4
:107F0000A601A0E0B1E02C9130E011968C91119780
:107F100090E0982F8827822B932B1296FA010C0160
:107F200087BEE89511244E5F5F4FF1E0A038BF0790
:107F300051F7F601A7BEE89507B600FCFDCF97BE46
:107F4000E89526C08437B1F42ED02DD0F82E2BD052
:107F50003CD0F601EF2C8F010F5F1F4F84911BD097
:107F6000EA94F801C1F70894C11CD11CFA94CF0C13
:107F7000D11C0EC0853739F428D08EE10CD085E9AC
:107F80000AD08FE07ACF813511F488E018D01DD067
:107F900080E101D065CF982F8091C00085FFFCCF94
:107FA0009093C60008958091C00087FFFCCF809118
:107FB000C00084FD01C0A8958091C6000895E0E648
:107FC000F0E098E1908380830895EDDF803219F02E
:107FD00088E0F5DFFFCF84E1DECF1F93182FE3DFCA
:107FE0001150E9F7F2DF1F91089580E0E8DFEE27F6
:047FF000FF270994CA
:027FFE00040479
:0400000300007E007B
:00000001FF
