:100000000C9459000C9481000C9481000C94810094
:100010000C9481000C9481000C9481000C9481005C
:100020000C9481000C9481000C9481000C9481004C
:100030000C9481000C9481000C9481000C9481003C
:100040000C9448030C9481000C9416030C94F00259
:100050000C9481000C9481000C9481000C9481001C
:100060000C9492030C9481000000000025002800ED
:100070002B00040404040404040402020202020229
:10008000030303030303010204081020408001025C
:1000900004081020010204081020000000080002DB
:1000A0000100000304070000000000000000B1048C
:1000B000700611241FBECFEFD8E0DEBFCDBF22E017
:1000C000ACE2B1E001C01D92AE3AB207E1F711E037
:1000D000A0E0B1E0EAE6F1E102C005900D92AC3299
:1000E000B107D9F710E0C8E5D0E004C02197FE01C0
:1000F0000E94B006C735D107C9F70E944C050C9481
:10010000A8080C9400002091E80181E0213208F059
:1001100044C08091C4018111FCCF8091E70192E03D
:100120009093C40191E09093C3019FEF9093C2011B
:100130001092C1012093C001A7ECB1E0E0EAF1E028
:1001400090E0291331C010929F0190919F01880F78
:10015000892B80939F0180919E01813049F51092F7
:100160009E0180919F018093BB008091BC0083FD24
:10017000F8CF85EC8093BC008091C4018230E1F31C
:100180008091C2018F3FB1F08091C2018032A1F015
:100190008091C201803391F084E01092C6011092E8
:1001A000E8011092C50108953D9131939F5FC9CF39
:1001B00085EEE0CF80E0F1CF82E0EFCF83E0EDCFBE
:1001C00090E0FC01E656FF4F2491FC01EA57FF4FF7
:1001D0003491FC01EE58FF4FE491EE23B1F022235D
:1001E00039F02330E9F090F4213001F1223011F19F
:1001F000F0E0EE0FFF1FE859FF4FA591B4918FB7C4
:10020000F894EC913E2B3C938FBF08952730A9F0D2
:100210002830C9F0243061F7809180008F7D03C0C1
:10022000809180008F7780938000E2CF84B58F77B4
:1002300084BDDECF84B58F7DFBCF8091B0008F77FA
:100240008093B000D5CF8091B0008F7DF9CF089515
:100250000895AF92BF92CF92DF92EF92FF920F93E9
:100260001F93CF93DF936C017B018B01040F151F4C
:10027000EB015E01AE18BF08C017D10759F06991B4
:10028000D601ED91FC910190F081E02DC601099518
:10029000892B79F7C501DF91CF911F910F91FF90C5
:1002A000EF90DF90CF90BF90AF900895FC01538DF9
:1002B000448D252F30E0842F90E0821B930B541740
:1002C00010F0CF96089501970895FC01918D828DCD
:1002D000981761F0A28DAE0FBF2FB11D5D968C9166
:1002E000928D9F5F9F73928F90E008958FEF9FEFA5
:1002F0000895FC01918D828D981731F0828DE80F61
:10030000F11D858D90E008958FEF9FEF0895FC011A
:10031000918D228D892F90E0805C9F4F821B9109E7
:100320008F739927089589EE91E00E94870121E05B
:10033000892B09F420E0822F089580E090E0892B3A
:1003400029F00E94930181110C9400000895FC0192
:10035000A48DA80FB92FB11DA35ABF4F2C91848D26
:1003600090E001968F739927848FA689B7892C9383
:10037000A089B1898C91837080648C93938D848DD6
:10038000981306C00288F389E02D80818F7D8083D9
:100390000895EF92FF920F931F93CF93DF93EC0199
:1003A00081E0888F9B8D8C8D98131AC0E889F9891C
:1003B000808185FF15C09FB7F894EE89FF8960831F
:1003C000E889F98980818370806480839FBF81E0A0
:1003D00090E0DF91CF911F910F91FF90EF900895E2
:1003E000F62E0B8D10E00F5F1F4F0F731127E02EBD
:1003F0008C8D8E110CC00FB607FCFACFE889F989F5
:10040000808185FFF5CFCE010E94A701F1CFEB8D52
:10041000EC0FFD2FF11DE35AFF4FF0829FB7F894C8
:100420000B8FEA89FB8980818062CFCFCF93DF93E6
:10043000EC01888D8823B9F0AA89BB89E889F989FC
:100440008C9185FD03C0808186FD0DC00FB607FC31
:10045000F7CF8C9185FFF2CF808185FFEDCFCE0164
:100460000E94A701E9CFDF91CF91089585ED809398
:10047000BC008091BC0084FDFCCF1092C4010895A3
:1004800020916C01260F3327331F21323105ECF404
:100490002091C401FC0190E080E0243069F082E00A
:1004A0000895A0916C012191AC01445B5E4FA40FB3
:1004B000B52FB11D2C930196861798F380916C018E
:1004C000680F60936C0180E0089581E008950895BD
:1004D000E0919D0180919C01E81730F4F0E0E45D2B
:1004E000FE4F808190E008958FEF9FEF08959091E7
:1004F0009D0180919C012FEF3FEF981748F4E92F61
:10050000F0E0E45DFE4F208130E09F5F90939D011D
:10051000C901089580919C0190919D01891B990BBF
:100520000895CF92DF92EF92FF920F931F93CF9394
:10053000DF937C01CB018A012091C501222389F040
:10054000EB016B01C40ED51ECC15DD0569F0699178
:10055000D701ED91FC910190F081E02DC701099543
:10056000F3CF642F0E944002C801DF91CF911F9109
:100570000F91FF90EF90DF90CF900895CF93DF938E
:100580001F92CDB7DEB769832091C5012223F9F010
:100590002091E801203258F021E030E0FC01338363
:1005A000228390E080E00F90DF91CF9108958091B9
:1005B000C601E82FF0E0E953FE4F998190838F5FE9
:1005C0008093C6018093E80181E090E0ECCF61E088
:1005D000CE0101960E944002F7CF90E080E008959E
:1005E0001F920F920FB60F9211242F933F934F93A8
:1005F0005F936F937F938F939F93AF93BF93EF938B
:10060000FF9389EE91E00E94A701FF91EF91BF91C6
:10061000AF919F918F917F916F915F914F913F919A
:100620002F910F900FBE0F901F9018951F920F9251
:100630000FB60F9211242F938F939F93EF93FF93F5
:10064000E091F901F091FA018081E091FF01F091D0
:10065000000282FD1BC09081809102028F5F8F7328
:1006600020910302821741F0E0910202F0E0E7518D
:10067000FE4F958F80930202FF91EF919F918F9192
:100680002F910F900FBE0F901F9018958081F4CF7F
:100690001F920F920FB60F9211242F933F938F93B7
:1006A0009F93AF93BF938091940190919501A091F6
:1006B0009601B09197013091930123E0230F2D37DC
:1006C00058F50196A11DB11D2093930180939401CB
:1006D00090939501A0939601B093970180918F011B
:1006E00090919001A0919101B09192010196A11D6C
:1006F000B11D80938F0190939001A0939101B093CD
:100700009201BF91AF919F918F913F912F910F9047
:100710000FBE0F901F90189526E8230F0296A11D7B
:10072000B11DD2CF1F920F920FB60F9211242F93AB
:100730003F934F935F936F937F938F939F93AF9369
:10074000BF93EF93FF938091B900887F803609F4BF
:100750004AC0F0F5883209F4A7C018F5803109F4D1
:100760009BC0B8F4882309F4F9C0883009F494C018
:10077000FF91EF91BF91AF919F918F917F916F9179
:100780005F914F913F912F910F900FBE0F901F904F
:100790001895883109F488C0803251F78093C201DE
:1007A00014C0803409F49DC040F48033B9F3883319
:1007B000F9F68093C20185ECB0C0803509F485C09C
:1007C000883509F496C0883499F60E943602D0CF55
:1007D000883909F48CC038F5883729F050F4883608
:1007E00011F0803729F683E08093C40110928E01C6
:1007F00057C0883809F47BC0803919F0803809F077
:10080000B7CF80918E01803208F071C0E0918E01E7
:1008100081E08E0F80938E018091BB00F0E0E25961
:10082000FE4F80833DC0803B39F0E0F4803A09F40C
:1008300079C0883A09F09CCF84E08093C40110927B
:100840006D0110926C01E0919A01F0919B01099564
:1008500080916C0181110FC081E080936C01109236
:100860004C0109C0803C09F4A6CF883C09F4A3CF11
:10087000883B09F07DCFE0916D0181E08E0F809380
:100880006D01F0E0E45BFE4F80818093BB009091AE
:100890006D0180916C0129C080919F018093BB0004
:1008A00085EC8093BC0064CF9091C1018091C00120
:1008B000981758F5E091C10181E08E0F8093C10136
:1008C000F0E0E056FE4F8081E9CFE091C10181E088
:1008D0008E0F8093C1018091BB00F0E0E056FE4F87
:1008E00080839091C1018091C0019817C8F285E87A
:1008F000D8CFE091C10181E08E0F8093C10180913A
:10090000BB00F0E0E056FE4F80838091C30181116F
:100910005CCF81E080939E0184EA8093BC001092BA
:10092000C40126CF85EC8093BC001092C401809155
:100930008E01803230F4E0918E01F0E0E259FE4FFA
:10094000108260918E0170E0E0919801F091990120
:100950008EE691E0099510928E010ACF1092C201A5
:1009600034CF1092EC011092EB0188EE93E0A0E0FE
:10097000B0E08093ED019093EE01A093EF01B0936E
:10098000F0012AE031E03093EA012093E90125ECFF
:1009900030E03093F6012093F50124EC30E0309301
:1009A000F8012093F70120EC30E03093FA01209316
:1009B000F90121EC30E03093FC012093FB0122ECA3
:1009C00030E03093FE012093FD0126EC30E03093BF
:1009D00000022093FF011092020210920302109273
:1009E00004021092050210928902109288028093EC
:1009F0008A0290938B02A0938C02B0938D028CE1BB
:100A000091E090938702809386021092A90210923F
:100A100093021092920210929502109294021092F8
:100A200097021092960261E070E090E080E00E94F0
:100A3000DB070097E1F0909393028093920210926B
:100A40009502109294022091960230919702232BE6
:100A500011F4FC01108210929702109296026AE241
:100A600071E080919202909193020C94A108809180
:100A7000920290919302009711F00E9452071092F7
:100A80009302109292021092970210929602109284
:100A90009502109294020895789484B5826084BD82
:100AA00084B5816084BD85B5826085BD85B5816072
:100AB00085BD80916E00816080936E0010928100F0
:100AC00080918100826080938100809181008160AB
:100AD000809381008091800081608093800080916C
:100AE000B10084608093B1008091B00081608093F8
:100AF000B00080917A00846080937A0080917A00BF
:100B0000826080937A0080917A00816080937A007D
:100B100080917A00806880937A001092C100E09101
:100B2000F901F091FA0182E08083E091F501F09102
:100B3000F6011082E091F701F091F8018FEC8083CB
:100B400010920102E091FD01F091FE0186E08083A8
:100B5000E091FB01F091FC01808180618083E09154
:100B6000FB01F091FC01808188608083E091FB01B2
:100B7000F091FC01808180688083E091FB01F0911D
:100B8000FC0180818F7D808380E78093A802109292
:100B90009D0110929C011092C6011092E8011092E2
:100BA000C401C1E0C093C30110929E0182E10E9482
:100BB000E00083E10E94E0008091B9008E7F809385
:100BC000B9008091B9008D7F8093B90088E480934B
:100BD000B80085E48093BC0087E291E090939B018C
:100BE00080939A0188E291E0909399018093980113
:100BF0008091A802C093C5018093E7011092C601BD
:100C00001092E80161E286E892E00E94BE020E9432
:100C100083008091A802C093C5018093E7011092E0
:100C2000C6011092E80161E886E892E00E94BE02E7
:100C30000E9483008091A802C093C5018093E701C0
:100C40001092C6011092E8016FEE86E892E00E94D1
:100C5000BE020E9483008FE390E09093A1028093F4
:100C6000A00210929F0210929E0210929D0210927A
:100C70009C0210929B0210929A021092990210927A
:100C800098028091A802C093C5018093E701109259
:100C9000C6011092E80160E086E892E00E94BE0280
:100CA000C8E9D2E06881229686E892E00E94BE02FE
:100CB000FE013297618186E892E00E94BE0282E0E6
:100CC000C83AD80779F70E948300C0E0D0E02097A7
:100CD000F1F30E9493018823D1F30E940000F7CF23
:100CE0008091920290919302009711F00C94520718
:100CF00008952F923F924F925F926F927F928F92C0
:100D00009F92AF92BF92CF92DF92EF92FF920F939A
:100D10001F93CF93DF93CDB7DEB7CA1BDB0B0FB6A4
:100D2000F894DEBF0FBECDBF09942A883988488861
:100D30005F846E847D848C849B84AA84B984C884F7
:100D4000DF80EE80FD800C811B81AA81B981CE0FEE
:100D5000D11D0FB6F894DEBF0FBECDBFED010895D3
:100D6000EE0FFF1F0590F491E02D09940F931F9350
:100D7000CF93DF938230910510F482E090E0E09110
:100D8000AC02F091AD0230E020E0B0E0A0E030979E
:100D900099F42115310509F44AC0281B390B243078
:100DA0003105D8F58A819B816115710589F1FB01B7
:100DB00093838283FE0111C040815181028113819E
:100DC00048175907E0F04817590799F4109761F050
:100DD00012960C93129713961C933296CF01DF91C3
:100DE000CF911F910F9108950093AC021093AD0223
:100DF000F4CF2115310551F04217530738F0A901FE
:100E0000DB019A01BD01DF01F801C1CFEF01F9CF8C
:100E10009093AD028093AC02CDCFFE01E20FF31FA1
:100E2000819391932250310939832883D7CF209120
:100E3000AA023091AB02232B41F4209102013091A0
:100E400003013093AB022093AA022091000130915C
:100E500001012115310541F42DB73EB74091040140
:100E600050910501241B350BE091AA02F091AB02D1
:100E7000E217F307A0F42E1B3F0B2817390778F071
:100E8000AC014E5F5F4F2417350748F04E0F5F1FD0
:100E90005093AB024093AA02819391939FCFF0E0CD
:100EA000E0E09CCFCF93DF930097E9F0FC0132970D
:100EB00013821282A091AC02B091AD02ED0130E03C
:100EC00020E01097A1F420813181820F931F20919F
:100ED000AA023091AB022817390709F061C0F093DC
:100EE000AB02E093AA02DF91CF910895EA01CE17F9
:100EF000DF07E8F54A815B819E0141155105B1F795
:100F0000E901FB83EA8349915991C40FD51FEC177E
:100F1000FD0761F4808191810296840F951FE9019C
:100F200099838883828193819B838A83F0E0E0E0C8
:100F300012968D919C9113970097B9F52D913C9144
:100F40001197CD010296820F931F2091AA02309132
:100F5000AB022817390739F6309751F51092AD02D8
:100F60001092AC02B093AB02A093AA02BCCFD38381
:100F7000C28340815181840F951FC817D90761F43E
:100F80004E5F5F4F88819981480F591F518340837D
:100F90008A819B81938382832115310509F0B0CF2B
:100FA000F093AD02E093AC029ECFFD01DC01C0CF17
:100FB00013821282D7CFB0E0A0E0E1EEF7E00C940C
:100FC0007B068C01009751F4CB010E94B6068C0180
:100FD000C801CDB7DEB7E0E10C949706FC01E60F3F
:100FE000F71F9C0122503109E217F30708F49DC056
:100FF000D901CD91DC911197C617D70798F0C5306C
:10100000D10530F3CE0104978617970708F3C61B66
:10101000D70B2297C193D1936D937C93CF010E94FC
:101020005207D6CF5B01AC1ABD0A4C018C0E9D1E37
:10103000A091AC02B091AD02512C412CF12CE12CCD
:10104000109731F58091AA029091AB02881599050D
:1010500009F05CC04616570608F058C080910001A0
:1010600090910101009741F48DB79EB74091040122
:1010700050910501841B950BE817F90708F055C03E
:10108000F093AB02E093AA02F90171836083A0CFD1
:101090008D919C91119712966C90129713967C905B
:1010A0001397A815B90559F56C0142E0C40ED11C7F
:1010B000CA14DB0420F1AC014A195B09DA0112966B
:1010C000159780F06282738251834083D9016D93BA
:1010D0007C93E114F10471F0D7011396FC93EE9325
:1010E000129776CF22968C0F9D1FF90191838083F2
:1010F000F301EFCFF093AD02E093AC0269CF481655
:10110000590608F42C017D01D3019ACFCB010E942E
:10111000B6067C01009749F0AE01B8010E9498081C
:10112000C8010E945207870153CF10E000E050CF62
:10113000FB01DC0102C001900D9241505040D8F7F4
:101140000895FB01DC0101900D920020E1F7089564
:1011500010E0C8E5D0E004C0FE010E94B006219670
:0A116000C935D107C9F7F894FFCF95
:10116A000000AE02800000000000C90129015601FA
:10117A00160287016501790100000000BE02910292
:0C118A00ED0267028A0277026802000092
:107E0000112484B714BE81FFF0D085E080938100F7
:107E100082E08093C00088E18093C10086E0809377
:107E2000C20080E18093C4008EE0C9D0259A86E02C
:107E300020E33CEF91E0309385002093840096BBD3
:107E4000B09BFECF1D9AA8958150A9F7CC24DD24C4
:107E500088248394B5E0AB2EA1E19A2EF3E0BF2EE7
:107E6000A2D0813461F49FD0082FAFD0023811F036
:107E7000013811F484E001C083E08DD089C08234E0
:107E800011F484E103C0853419F485E0A6D080C0E4
:107E9000853579F488D0E82EFF2485D0082F10E0AE
:107EA000102F00270E291F29000F111F8ED06801E7
:107EB0006FC0863521F484E090D080E0DECF843638
:107EC00009F040C070D06FD0082F6DD080E0C81688
:107ED00080E7D80618F4F601B7BEE895C0E0D1E017
:107EE00062D089930C17E1F7F0E0CF16F0E7DF06D8
:107EF00018F0F601B7BEE89568D007B600FCFDCFD4
:107F0000A601A0E0B1E02C9130E011968C91119780
:107F100090E0982F8827822B932B1296FA010C0160
:107F200087BEE89511244E5F5F4FF1E0A038BF0790
:107F300051F7F601A7BEE89507B600FCFDCF97BE46
:107F4000E89526C08437B1F42ED02DD0F82E2BD052
:107F50003CD0F601EF2C8F010F5F1F4F84911BD097
:107F6000EA94F801C1F70894C11CD11CFA94CF0C13
:107F7000D11C0EC0853739F428D08EE10CD085E9AC
:107F80000AD08FE07ACF813511F488E018D01DD067
:107F900080E101D065CF982F8091C00085FFFCCF94
:107FA0009093C60008958091C00087FFFCCF809118
:107FB000C00084FD01C0A8958091C6000895E0E648
:107FC000F0E098E1908380830895EDDF803219F02E
:107FD00088E0F5DFFFCF84E1DECF1F93182FE3DFCA
:107FE0001150E9F7F2DF1F91089580E0E8DFEE27F6
:047FF000FF270994CA
:027FFE00040479
:0400000300007E007B
:00000001FF
