:100000000C945D000C9485000C9485000C94850084
:100010000C9485000C9485000C9485000C9485004C
:100020000C9485000C9485000C9485000C9485003C
:100030000C9485000C9485000C9485000C9485002C
:100040000C948C050C9485000C945A050C94340582
:100050000C9485000C9485000C9485000C9485000C
:100060000C94D6050C9485000000000024002700A5
:100070002A0000000000250028002B0004040404CE
:100080000404040402020202020203030303030342
:10009000010204081020408001020408102001021F
:1000A00004081020000000080002010000030407FB
:1000B0000000000000000000F50611241FBECFEF75
:1000C000D8E0DEBFCDBF11E0A0E0B1E0EEEAF5E19F
:1000D00002C005900D92A432B107D9F722E0A4E244
:1000E000B1E001C01D92A33AB207E1F710E0CDE5FF
:1000F000D0E004C02197FE010E94CF0ACC35D10781
:10010000C9F70E9438070C94D50A0C94000090E0BF
:10011000FC01EC55FF4F2491FC01E057FF4F349157
:10012000FC01E458FF4FE491EE23B1F0222339F0B3
:100130002330E9F090F4213001F1223011F1F0E0A8
:10014000EE0FFF1FEE58FF4FA591B4918FB7F894B3
:10015000EC913E2B3C938FBF08952730A9F02830B7
:10016000C9F0243061F7809180008F7D03C08091B9
:1001700080008F7780938000E2CF84B58F7784BD35
:10018000DECF84B58F7DFBCF8091B0008F778093D9
:10019000B000D5CF8091B0008F7DF9CF089508953C
:1001A0001092BC011092BB011092DE011092DD0191
:1001B0001092BA0181E08093B9011092B40182E1FA
:1001C0000E94870083E10E948700E9EBF0E08081D4
:1001D0008E7F808380818D7F808388E48093B800C8
:1001E00085E48093BC008EEC90E090939301809323
:1001F00092018FEC90E0909391018093900108958B
:10020000AF92BF92CF92DF92EF92FF920F931F9324
:10021000CF93DF936C017B018B01040F151FEB0162
:100220005E01AE18BF08C017D10759F06991D60119
:10023000ED91FC910190F081E02DC6010995892B8B
:1002400079F7C501DF91CF911F910F91FF90EF904A
:10025000DF90CF90BF90AF900895FC01538D448DF7
:10026000252F30E0842F90E0821B930B541710F061
:10027000CF96089501970895FC01918D828D98176E
:1002800061F0A28DAE0FBF2FB11D5D968C91928D46
:100290009F5F9F73928F90E008958FEF9FEF089577
:1002A000FC01918D828D981731F0828DE80FF11D40
:1002B000858D90E008958FEF9FEF0895FC01918D5B
:1002C000228D892F90E0805C9F4F821B91098F7354
:1002D0009927089581EE91E00E945E0121E0892B2B
:1002E00009F420E0822F089580E090E0892B29F026
:1002F0000E946A0181110C9400000895FC01A48DF4
:10030000A80FB92FB11DA35ABF4F2C91848D90E037
:1003100001968F739927848FA689B7892C93A0891A
:10032000B1898C91837080648C93938D848D9813A4
:1003300006C00288F389E02D80818F7D8083089537
:10034000EF92FF920F931F93CF93DF93EC0181E025
:10035000888F9B8D8C8D98131AC0E889F9898081CC
:1003600085FF15C09FB7F894EE89FF896083E889FF
:10037000F98980818370806480839FBF81E090E0F1
:10038000DF91CF911F910F91FF90EF900895F62E7E
:100390000B8D10E00F5F1F4F0F731127E02E8C8D18
:1003A0008E110CC00FB607FCFACFE889F98980815D
:1003B00085FFF5CFCE010E947E01F1CFEB8DEC0FD2
:1003C000FD2FF11DE35AFF4FF0829FB7F8940B8F7A
:1003D000EA89FB8980818062CFCFCF93DF93EC01E4
:1003E000888D8823B9F0AA89BB89E889F9898C911D
:1003F00085FD03C0808186FD0DC00FB607FCF7CFD9
:100400008C9185FFF2CF808185FFEDCFCE010E94D8
:100410007E01E9CFDF91CF9108953FB7F8948091A5
:100420008C0190918D01A0918E01B0918F0126B524
:10043000A89B05C02F3F19F00196A11DB11D3FBF1C
:10044000BA2FA92F982F8827BC01CD01620F711DEB
:10045000811D911D42E0660F771F881F991F4A95E5
:10046000D1F708958F929F92AF92BF92CF92DF9271
:10047000EF92FF924B015C010E940D026B017C0127
:100480000E940D026C197D098E099F09683E734018
:1004900081059105A8F321E0821A9108A108B1080D
:1004A00088EEC80E83E0D81EE11CF11C8114910473
:1004B000A104B10429F7FF90EF90DF90CF90BF9097
:1004C000AF909F908F900895DC01ED91FC91019089
:1004D000F081E02D0994DC01ED91FC910190F08117
:1004E000E02D099485ED8093BC008091BC0084FDD3
:1004F000FCCF1092BA01089520916401260F332792
:10050000331F21323105ECF42091BA01FC0190E057
:1005100080E0243069F082E00895A0916401219187
:10052000AC014C5B5E4FA40FB52FB11D2C9301960F
:10053000861798F380916401680F6093640180E0EE
:10054000089581E008950895E091BC018091BB0178
:10055000E81730F4F0E0E354FE4F808190E0089516
:100560008FEF9FEF08959091BC018091BB012FEF19
:100570003FEF981748F4E92FF0E0E354FE4F208155
:1005800030E09F5F9093BC01C90108958091BB0149
:100590009091BC01891B990B0895CF92DF92EF9245
:1005A000FF920F931F93CF93DF937C01CB018A01BE
:1005B0002091E001222389F0EB016B01C40ED51ECE
:1005C000CC15DD0569F06991D701ED91FC910190A1
:1005D000F081E02DC7010995F3CF642F0E947C02C2
:1005E000C801DF91CF911F910F91FF90EF90DF90A5
:1005F000CF900895CF93DF931F92CDB7DEB7698375
:100600002091E0012223F9F02091DD01203258F001
:1006100021E030E0FC013383228390E080E00F9002
:10062000DF91CF9108958091DE01E82FF0E0EC5D3D
:10063000FE4F998190838F5F8093DE018093DD016F
:1006400081E090E0ECCF61E0CE0101960E947C0257
:10065000F7CF2091DD0181E0213208F044C0809184
:10066000BA018111FCCF8091DF0192E09093BA0131
:1006700091E09093B9019FEF9093B8011092B70168
:100680002093B601A4E2B1E0E4E9F1E090E029139F
:1006900031C01092B5019091B501880F892B8093DC
:1006A000B5018091B401813049F51092B401809177
:1006B000B5018093BB008091BC0083FDF8CF85EC31
:1006C0008093BC008091BA018230E1F38091B8013F
:1006D0008F3FB1F08091B8018032A1F08091B801D4
:1006E000803391F084E01092DE011092DD011092CF
:1006F000E00108953D9131939F5FC9CF85EEE0CF32
:1007000080E0F1CF82E0EFCF83E0EDCF1F93CF9376
:10071000DF93162FCAE8D2E0A981BA81988121E03F
:100720002093E0019093DF011092DE011092DD0131
:10073000ED91FC9111970190F081E02D682FCD0192
:10074000099589819A81DC01ED91FC910190F081FC
:10075000E02D612F099589819A81DF91CF911F91B9
:100760000C94290390E080E00895A0918B02B09151
:100770008C0290918A0221E02093E0019093DF01A6
:100780001092DE011092DD01ED91FC911197019024
:10079000F081E02D682FCD01099580918B02909119
:1007A0008C020E94290380918A029091BA019111D2
:1007B000FCCF91E09093BA019093B9012FEF209371
:1007C000B8011092B7011092B6019093B5019091C3
:1007D000B501880F892B8093B5018091B4018130D8
:1007E00079F51092B4018091B5018093BB0080919E
:1007F000BC0083FDF8CF85EC8093BC008091BA01EA
:100800008130E1F38091B70191E0811102C09091B4
:10081000B701A4E9B1E0EDEBF1E080E0891312C08B
:100820001092BC018093BB0180918B0290918C024D
:10083000DC01ED91FC910284F385E02D099508958A
:1008400085EEDACF2D9121938F5FE8CF8F929F9223
:10085000AF92BF92CF92DF92EF92FF92CF936B0154
:100860007C0120E030E040E85FE30E94050987FD5D
:100870007AC020E030EC4AE555E4C701B6010E9499
:100880005D0A18163CF4C12C30ECD32E3AE5E32E69
:1008900035E4F32E60918D0270918E0280918F026B
:1008A000909190020E94AB094B015C0120E030E086
:1008B00040E855E4C701B6010E94620A9B01AC0101
:1008C000C501B4010E940A0920E030E040E05FE386
:1008D0000E94990820E030E040E85FE30E94980819
:1008E0006B017C0120E030E040E450E40E94050907
:1008F00087FD40C020E030E04FE753E4C701B60178
:100900000E945D0A181634F4C12CD12C9FE7E92E01
:1009100093E4F92E80E00E94B503C82F682F6F760C
:10092000606180E00E948603C701B6010E947C09D5
:100930008EEF0E9486036C2F80E00E94860365E0A4
:1009400070E080E090E00E9432026C2F606A80E0EC
:10095000CF91FF90EF90DF90CF90BF90AF909F909E
:100960008F900C948603C12CD12C20E8E22E2FE32B
:10097000F22E90CFC12CD12C80E4E82EFE2CCACFD1
:100980008F929F92AF92BF92CF92DF92EF92FF929F
:100990000F931F93CF93DF93BC0190E080E00E9400
:1009A000AB096B017C018EEF0E94B503682F70E0EC
:1009B0006F5F7F4F90E080E00E94AB0920E034E25F
:1009C00044E759E40E94620A4B015C01CAE8D2E0A4
:1009D0006B817C818D819E810E94AB099B01AC0162
:1009E000C501B4010E940A099B01AC01C701B6010F
:1009F0000E940A090E947C098B0189819A812881C1
:100A000031E03093E0012093DF011092DE0110927B
:100A1000DD0166E070E00E94640270E060E08981C0
:100A20009A810E946B0270E060E089819A810E9445
:100A30006B02B80189819A810E946B02612F70E07C
:100A400089819A810E946B0289819A81DF91CF917D
:100A50001F910F91FF90EF90DF90CF90BF90AF90DC
:100A60009F908F900C9429031F920F920FB60F92B4
:100A700011242F933F934F935F936F937F938F93A3
:100A80009F93AF93BF93EF93FF9381EE91E00E940A
:100A90007E01FF91EF91BF91AF919F918F917F91D7
:100AA0006F915F914F913F912F910F900FBE0F90DB
:100AB0001F9018951F920F920FB60F9211242F932B
:100AC0008F939F93EF93FF93E091F101F091F201E7
:100AD0008081E091F701F091F80182FD1BC09081C7
:100AE0008091FA018F5F8F732091FB01821741F093
:100AF000E091FA01F0E0EF51FE4F958F8093FA01FB
:100B0000FF91EF919F918F912F910F900FBE0F90BA
:100B10001F9018958081F4CF1F920F920FB60F92FD
:100B200011242F933F938F939F93AF93BF93809103
:100B3000880190918901A0918A01B0918B01309137
:100B4000870123E0230F2D3758F50196A11DB11D14
:100B5000209387018093880190938901A0938A0153
:100B6000B0938B0180918C0190918D01A0918E01A9
:100B7000B0918F010196A11DB11D80938C019093BE
:100B80008D01A0938E01B0938F01BF91AF919F9182
:100B90008F913F912F910F900FBE0F901F9018953E
:100BA00026E8230F0296A11DB11DD2CF1F920F92EE
:100BB0000FB60F9211242F933F934F935F936F9330
:100BC0007F938F939F93AF93BF93EF93FF93809106
:100BD000B900887F803609F44AC0F0F5883209F4FC
:100BE000A7C018F5803109F49BC0B8F4882309F434
:100BF000F9C0883009F494C0FF91EF91BF91AF9193
:100C00009F918F917F916F915F914F913F912F9124
:100C10000F900FBE0F901F901895883109F488C06F
:100C2000803251F78093B80114C0803409F49DC01C
:100C300040F48033B9F38833F9F68093B80185EC3A
:100C4000B0C0803509F485C0883509F496C0883471
:100C500099F60E947202D0CF883909F48CC038F519
:100C6000883729F050F4883611F0803729F683E070
:100C70008093BA011092860157C0883809F47BC06E
:100C8000803919F0803809F0B7CF80918601803221
:100C900008F071C0E091860181E08E0F809386019B
:100CA0008091BB00F0E0EA59FE4F80833DC0803B5D
:100CB00039F0E0F4803A09F479C0883A09F09CCF21
:100CC00084E08093BA011092650110926401E09172
:100CD0009201F091930109958091640181110FC0F7
:100CE00081E0809364011092440109C0803C09F4C2
:100CF000A6CF883C09F4A3CF883B09F07DCFE091D3
:100D0000650181E08E0F80936501F0E0EC5BFE4FA2
:100D100080818093BB00909165018091640129C01E
:100D20008091B5018093BB0085EC8093BC0064CFBB
:100D30009091B7018091B601981758F5E091B701ED
:100D400081E08E0F8093B701F0E0EC56FE4F80817A
:100D5000E9CFE091B70181E08E0F8093B7018091D8
:100D6000BB00F0E0EC56FE4F80839091B70180917C
:100D7000B6019817C8F285E8D8CFE091B70181E0B5
:100D80008E0F8093B7018091BB00F0E0EC56FE4FD0
:100D900080838091B90181115CCF81E08093B4019F
:100DA00084EA8093BC001092BA0126CF85EC809330
:100DB000BC001092BA0180918601803230F4E0913B
:100DC0008601F0E0EA59FE4F10826091860170E0E2
:100DD000E0919001F091910186E691E009951092E1
:100DE00086010ACF1092B80134CFE1EEF1E0138210
:100DF000128288EE93E0A0E0B0E084839583A6831E
:100E0000B78324E031E03183208325EC30E035875F
:100E1000248724EC30E03787268720EC30E0318BC4
:100E2000208B21EC30E0338B228B22EC30E0358BB1
:100E3000248B26EC30E0378B268B118E128E138E8E
:100E4000148EEEE7F2E01382128284839583A683E8
:100E5000B78386E191E0918380831092A202AAE891
:100E6000B2E080E48C931296FC93EE931197089570
:100E7000789484B5826084BD84B5816084BD85B575
:100E8000826085BD85B5816085BD80916E00816081
:100E900080936E0010928100809181008260809327
:100EA0008100809181008160809381008091800029
:100EB0008160809380008091B10084608093B10054
:100EC0008091B00081608093B00080917A0084604E
:100ED00080937A0080917A00826080937A0080917A
:100EE0007A00816080937A0080917A008068809394
:100EF0007A001092C100E091F101F091F20182E0DC
:100F00008083E091ED01F091EE011082E091EF011C
:100F1000F091F0018FEC80831092F901E091F501DE
:100F2000F091F60186E08083E091F301F091F40105
:100F3000808180618083E091F301F091F4018081F0
:100F400088608083E091F301F091F40180818068F2
:100F50008083E091F301F091F40180818F7D8083A3
:100F600080E78093A1020E94D0008091A102C1E09D
:100F7000C093E0018093DF011092DE011092DD0149
:100F800061E270E08EE792E00E9464028EE792E0F8
:100F90000E9429038091A102C093E0018093DF01A8
:100FA0001092DE011092DD0161E870E08EE792E0C0
:100FB0000E9464028EE792E00E9429038091A102C0
:100FC000C093E0018093DF011092DE011092DD01F9
:100FD0006FEE70E08EE792E00E9464028EE792E08E
:100FE0000E9429038FE390E090939A0280939902E4
:100FF0001092980210929702109296021092950207
:101000001092940210929302109292021092910206
:101010008091A102C093E0018093DF011092DE0174
:101020001092DD0160E08EE792E00E94FA02C1E9D1
:10103000D2E06991799177278EE792E00E946B0266
:10104000FE013297618170E08EE792E00E946B02B0
:1010500082E0C13AD80769F78EE792E00E9429033F
:101060000E94D00060E880E00E9486036AE070E0A1
:1010700080E090E00E94320260E070E08AE794E451
:101080000E94260480EC9CEFABE9B1E080938D02D6
:1010900090938E02A0938F02B093900260E070E074
:1010A00080E792E40E942604EDE9F0E02491E9E86B
:1010B000F0E08491882399F090E0880F991FFC015B
:1010C000E859FF4FA591B491FC01EE58FF4F85916F
:1010D00094918FB7F894EC91E22BEC938FBFC0E022
:1010E000D0E08CED95E00E94C00468E873E180E0F8
:1010F00090E00E94320284EA96E00E94C00468E810
:1011000073E180E090E00E94320281EE91E00E9463
:101110005E01892B21F081EE91E00E943C01209735
:1011200001F30E946A018823E1F20E940000D9CFF6
:101130005058BB27AA270E94B0080C94230A0E948B
:10114000150A38F00E941C0A20F039F49F3F19F468
:1011500026F40C94120A0EF4E095E7FB0C940C0AAA
:10116000E92F0E94340A58F3BA17620773078407FD
:10117000950720F079F4A6F50C94560A0EF4E09544
:101180000B2EBA2FA02D0B01B90190010C01CA0141
:10119000A0011124FF27591B99F0593F50F4503EEC
:1011A00068F11A16F040A22F232F342F4427585FDE
:1011B000F3CF469537952795A795F0405395C9F7F6
:1011C0007EF41F16BA0B620B730B840BBAF09150AE
:1011D000A1F0FF0FBB1F661F771F881FC2F70EC04D
:1011E000BA0F621F731F841F48F487957795679520
:1011F000B795F7959E3F08F0B0CF9395880F08F00C
:101200009927EE0F9795879508950E94E80908F4AD
:1012100081E008950E941E090C94230A0E941C0A72
:1012200058F00E94150A40F029F45F3F29F00C9411
:101230000C0A51110C94570A0C94120A0E94340A99
:1012400068F39923B1F3552391F3951B550BBB27F5
:10125000AA2762177307840738F09F5F5F4F220F3A
:10126000331F441FAA1FA9F335D00E2E3AF0E0E831
:1012700032D091505040E695001CCAF72BD0FE2F7B
:1012800029D0660F771F881FBB1F2617370748070F
:10129000AB07B0E809F0BB0B802DBF01FF279358C7
:1012A0005F4F3AF09E3F510578F00C940C0A0C9475
:1012B000570A5F3FE4F3983ED4F386957795679598
:1012C000B795F7959F5FC9F7880F911D96958795FC
:1012D00097F90895E1E0660F771F881FBB1F62171B
:1012E00073078407BA0720F0621B730B840BBA0BD9
:1012F000EE1F88F7E09508950E943C0A88F09F57FA
:1013000098F0B92F9927B751B0F0E1F0660F771F29
:10131000881F991F1AF0BA95C9F714C0B13091F01F
:101320000E94560AB1E008950C94560A672F782F50
:101330008827B85F39F0B93FCCF3869577956795E4
:10134000B395D9F73EF490958095709561957F4F50
:101350008F4F9F4F0895E89409C097FB3EF49095F6
:101360008095709561957F4F8F4F9F4F9923A9F07E
:10137000F92F96E9BB279395F6958795779567950D
:10138000B795F111F8CFFAF4BB0F11F460FF1BC051
:101390006F5F7F4F8F4F9F4F16C0882311F096E9E4
:1013A00011C0772321F09EE8872F762F05C0662392
:1013B00071F096E8862F70E060E02AF09A95660F4B
:1013C000771F881FDAF7880F9695879597F9089504
:1013D000990F0008550FAA0BE0E8FEEF1616170646
:1013E000E807F907C0F012161306E407F50798F0AE
:1013F000621B730B840B950B39F40A2661F0232BC7
:10140000242B252B21F408950A2609F4A140A69542
:101410008FEF811D811D089597F99F6780E870E027
:1014200060E008959FEF80EC089500240A9416165A
:10143000170618060906089500240A9412161306C2
:10144000140605060895092E0394000C11F4882350
:1014500052F0BB0F40F4BF2B11F460FF04C06F5F6C
:101460007F4F8F4F9F4F089557FD9058440F551F42
:1014700059F05F3F71F04795880F97FB991F61F016
:101480009F3F79F087950895121613061406551F8D
:10149000F2CF4695F1DF08C0161617061806991FF9
:1014A000F1CF86957105610508940895E894BB27EE
:1014B00066277727CB0197F908950E94E80908F479
:1014C0008FEF08950E94750A0C94230A0E94150A52
:1014D00038F00E941C0A20F0952311F00C940C0A9D
:1014E0000C94120A11240C94570A0E94340A70F3C7
:1014F000959FC1F3950F50E0551F629FF001729FB9
:10150000BB27F00DB11D639FAA27F00DB11DAA1FC7
:10151000649F6627B00DA11D661F829F2227B00D14
:10152000A11D621F739FB00DA11D621F839FA00D9F
:10153000611D221F749F3327A00D611D231F849FEF
:10154000600D211D822F762F6A2F11249F57504046
:101550009AF0F1F088234AF0EE0FFF1FBB1F661FC1
:10156000771F881F91505040A9F79E3F510580F08A
:101570000C940C0A0C94570A5F3FE4F3983ED4F3A2
:10158000869577956795B795F795E7959F5FC1F72E
:10159000FE2B880F911D9695879597F90895EE0F6C
:0E15A000FF1F0590F491E02D0994F894FFCF01
:1015AE0000000000A00100012D01ED015E013C01D3
:1015BE00500100000000FA02CD02B203A302C602DF
:0415CE00B302A402BE
:00000001FF
