:100000000C9458000C9480000C9480000C94800098
:100010000C9480000C9480000C9480000C94800060
:100020000C9480000C9480000C9480000C94800050
:100030000C9480000C9480000C9480000C94800040
:100040000C94EA030C9480000C9480000C948000C3
:100050000C9480000C9480000C9480000C94800020
:100060000C9434040C94800000000000250028004B
:100070002B00040404040404040402020202020229
:10008000030303030303010204081020408001025C
:1000900004081020010204081020000000080002DB
:1000A00001000003040700000000000000005305E9
:1000B00011241FBECFEFD8E0DEBFCDBF11E0A0E01E
:1000C000B1E0E0ECF0E102C005900D92A231B10781
:1000D000D9F721E0A2E1B1E001C01D92A23EB20732
:1000E000E1F710E0C8E5D0E004C02197FE010E94CE
:1000F0005808C735D107C9F70E946C050C945E08F3
:100100000C940000982F2091CE0181E0213208F05C
:1001100043C08091AA018111FCCF8091CD0132E0D2
:100120003093AA019093A9019FEF9093A801109298
:10013000A7012093A601ADEAB1E0E6E8F1E090E086
:10014000291331C01092850190918501880F892B68
:100150008093850180918401813049F5109284015A
:10016000809185018093BB008091BC0083FDF8CF16
:1001700085EC8093BC008091AA018230E1F38091EC
:10018000A8018F3FB1F08091A8018032A1F0809149
:10019000A801803391F084E01092AC011092CE015E
:1001A0001092AB0108953D9131939F5FC9CF85EEC9
:1001B000E0CF80E0F1CF82E0EFCF83E0EDCF1F937F
:1001C000CF93DF93162FCBEDD1E0A981BA8198812F
:1001D00021E02093AB019093CD011092AC011092DD
:1001E000CE01ED91FC9111970190F081E02D682FE7
:1001F000CD01099589819A81DC01ED91FC910190F5
:10020000F081E02D612F099581E0DF91CF911F9161
:100210000C94820090E0FC01E656FF4F2491FC0113
:10022000EA57FF4F3491FC01EE58FF4FE491EE2363
:10023000B1F0222339F02330E9F090F4213001F1BC
:10024000223011F1F0E0EE0FFF1FE859FF4FA591AA
:10025000B4918FB7F894EC913E2B3C938FBF0895E7
:100260002730A9F02830C9F0243061F78091800050
:100270008F7D03C0809180008F7780938000E2CFD4
:1002800084B58F7784BDDECF84B58F7DFBCF809121
:10029000B0008F778093B000D5CF8091B0008F7D74
:1002A000F9CF089508953FB7F89480915A0190913D
:1002B0005B01A0915C01B0915D0126B5A89B05C0D2
:1002C0002F3F19F00196A11DB11D3FBFBA2FA92FD5
:1002D000982F8827BC01CD01620F711D811D911DD2
:1002E00042E0660F771F881F991F4A95D1F708953E
:1002F0008F929F92AF92BF92CF92DF92EF92FF9236
:100300004B015C010E9453016B017C010E9453016F
:100310006C197D098E099F09683E7340810591051E
:10032000A8F321E0821A9108A108B10888EEC80E4E
:1003300083E0D81EE11CF11C81149104A104B104D6
:1003400029F7FF90EF90DF90CF90BF90AF909F90F4
:100350008F900895DC01ED91FC910190F081E02DEA
:10036000099485ED8093BC008091BC0084FDFCCF96
:100370001092AA01089520913201260F3327331FCE
:1003800021323105ECF42091AA01FC0190E080E0DB
:10039000243069F082E00895A09132012191AC01EE
:1003A0004E5E5E4FA40FB52FB11D2C93019686179C
:1003B00098F380913201680F6093320180E00895D4
:1003C00081E008950895E091630180916201E8174A
:1003D00030F4F0E0EC59FE4F808190E008958FEF0B
:1003E0009FEF089590916301809162012FEF3FEF9D
:1003F000981748F4E92FF0E0EC59FE4F208130E0E7
:100400009F5F90936301C90108958091620190916B
:100410006301891B990B0895CF92DF92EF92FF92AF
:100420000F931F93CF93DF937C01CB018A0120911F
:10043000AB01222389F0EB016B01C40ED51ECC1554
:10044000DD0569F06991D701ED91FC910190F08192
:10045000E02DC7010995F3CF642F0E94BB01C801AD
:10046000DF91CF911F910F91FF90EF90DF90CF9090
:100470000895CF93DF931F92CDB7DEB769832091A4
:10048000AB012223F9F02091CE01203258F021E077
:1004900030E0FC013383228390E080E00F90DF9115
:1004A000CF9108958091AC01E82FF0E0E355FE4F25
:1004B000998190838F5F8093AC018093CE0181E01E
:1004C00090E0ECCF61E0CE0101960E94BB01F7CF36
:1004D00090E080E00895A091DC01B091DD01909161
:1004E000DB0121E02093AB019093CD011092AC0190
:1004F0001092CE01ED91FC9111970190F081E02DC9
:10050000682FCD01099581E00E9482008091DB0176
:100510009091AA019111FCCF91E09093AA01909340
:10052000A9012FEF2093A8011092A7011092A60114
:100530009093850190918501880F892B8093850187
:1005400080918401813079F5109284018091850138
:100550008093BB008091BC0083FDF8CF85EC809335
:10056000BC008091AA018130E1F38091A70191E064
:10057000811102C09091A701A6E8B1E0E4E6F1E0A4
:1005800080E0891312C01092630180936201809110
:10059000DC019091DD01DC01ED91FC910284F38599
:1005A000E02D0995089585EEDACF2D9121938F5F87
:1005B000E8CF8F929F92AF92BF92CF92DF92EF924D
:1005C000FF920F931F93CF93DF93BC0190E080E0E5
:1005D0000E9434076B017C018EEF0E946B02682F32
:1005E00070E06F5F7F4F90E080E00E94340720E072
:1005F00034E244E759E40E94EB074B015C01CBED88
:10060000D1E06B817C818D819E810E9434079B01AA
:10061000AC01C501B4010E9493069B01AC01C70166
:10062000B6010E9493060E9405078B0189819A8179
:10063000288131E03093AB012093CD011092AC01C1
:100640001092CE01DC01ED91FC910190F081E02D42
:1006500066E0099570E060E089819A810E94AA01B4
:1006600070E060E089819A810E94AA01B8018981C5
:100670009A810E94AA01612F70E089819A810E946B
:10068000AA0181E0DF91CF911F910F91FF90EF9030
:10069000DF90CF90BF90AF909F908F900C9482008E
:1006A0008F929F92AF92BF92CF92DF92EF92FF9282
:1006B000CF936B017C0120E030E040E85FE30E94D3
:1006C0008E0687FD7AC020E030EC4AE555E4C7018C
:1006D000B6010E94E60718163CF4C12C30ECD32E6C
:1006E0003AE5E32E35E4F32E6091DE017091DF01EF
:1006F0008091E0019091E1010E9434074B015C017F
:1007000020E030E040E855E4C701B6010E94EB0765
:100710009B01AC01C501B4010E94930620E030E0CA
:1007200040E05FE30E94220620E030E040E85FE323
:100730000E9421066B017C0120E030E040E450E49F
:100740000E948E0687FD40C020E030E04FE753E472
:10075000C701B6010E94E607181634F4C12CD12C4B
:100760009FE7E92E93E4F92E80E00E946B02C82FE8
:10077000682F6F76606180E00E94DF00C701B601DC
:100780000E9405078EEF0E94DF006C2F80E00E9420
:10079000DF0065E070E080E090E00E9478016C2F5F
:1007A000606A80E0CF91FF90EF90DF90CF90BF9094
:1007B000AF909F908F900C94DF00C12CD12C20E83B
:1007C000E22E2FE3F22E90CFC12CD12C80E4E82E24
:1007D000FE2CCACF1F920F920FB60F9211242F93A7
:1007E0003F938F939F93AF93BF93809156019091C6
:1007F0005701A0915801B09159013091550123E062
:10080000230F2D3758F50196A11DB11D20935501D9
:100810008093560190935701A0935801B0935901CA
:1008200080915A0190915B01A0915C01B0915D01B2
:100830000196A11DB11D80935A0190935B01A09375
:100840005C01B0935D01BF91AF919F918F913F91FA
:100850002F910F900FBE0F901F90189526E8230F31
:100860000296A11DB11DD2CF1F920F920FB60F920B
:1008700011242F933F934F935F936F937F938F93A5
:100880009F93AF93BF93EF93FF938091B900887FBD
:10089000803609F44AC0F0F5883209F4A7C018F58B
:1008A000803109F49BC0B8F4882309F4F9C088307A
:1008B00009F494C0FF91EF91BF91AF919F918F91F7
:1008C0007F916F915F914F913F912F910F900FBE4C
:1008D0000F901F901895883109F488C0803251F725
:1008E0008093A80114C0803409F49DC040F4803383
:1008F000B9F38833F9F68093A80185ECB0C0803550
:1009000009F485C0883509F496C0883499F60E94A8
:10091000B101D0CF883909F48CC038F5883729F077
:1009200050F4883611F0803729F683E08093AA01CD
:100930001092540157C0883809F47BC0803919F0EF
:10094000803809F0B7CF80915401803208F071C02F
:10095000E091540181E08E0F809354018091BB009F
:10096000F0E0EC5CFE4F80833DC0803B39F0E0F46A
:10097000803A09F479C0883A09F09CCF84E08093EA
:10098000AA011092330110923201E0916001F091BE
:10099000610109958091320181110FC081E080933E
:1009A00032011092120109C0803C09F4A6CF883CA4
:1009B00009F4A3CF883B09F07DCFE091330181E0BA
:1009C0008E0F80933301F0E0EE5EFE4F80818093C6
:1009D000BB00909133018091320129C08091850143
:1009E0008093BB0085EC8093BC0064CF9091A701FD
:1009F0008091A601981758F5E091A70181E08E0F2C
:100A00008093A701F0E0EA57FE4F8081E9CFE091A3
:100A1000A70181E08E0F8093A7018091BB00F0E0D9
:100A2000EA57FE4F80839091A7018091A601981705
:100A3000C8F285E8D8CFE091A70181E08E0F8093BE
:100A4000A7018091BB00F0E0EA57FE4F80838091C0
:100A5000A90181115CCF81E08093840184EA8093B5
:100A6000BC001092AA0126CF85EC8093BC001092A6
:100A7000AA0180915401803230F4E0915401F0E0F9
:100A8000EC5CFE4F10826091540170E0E0915E01D9
:100A9000F0915F0184E391E00995109254010ACF2F
:100AA0001092A80134CFEFECF1E01382128288EEAD
:100AB00093E0A0E0B0E084839583A683B78384E0CD
:100AC00091E091838083ABEDB1E080E48C9312964A
:100AD000FC93EE9311970895789484B5826084BD59
:100AE00084B5816084BD85B5826085BD85B5816032
:100AF00085BD80916E00816080936E0010928100B0
:100B0000809181008260809381008091810081606A
:100B1000809381008091800081608093800080912B
:100B2000B10084608093B1008091B00081608093B7
:100B3000B00080917A00846080937A0080917A007E
:100B4000826080937A0080917A00816080937A003D
:100B500080917A00806880937A001092C100109290
:100B60006301109262011092AC011092CE011092BA
:100B7000AA0181E08093A9011092840182E10E9480
:100B80000A0183E10E940A018091B9008E7F80935F
:100B9000B9008091B9008D7F8093B90088E480937B
:100BA000B80085E48093BC0081E591E090936101F9
:100BB0008093600182E591E090935F0180935E01F4
:100BC00060E880E00E94DF006AE070E080E090E092
:100BD0000E94780160E070E08AE794E40E9450038C
:100BE00080EC9CEFABE9B1E08093DE019093DF01F4
:100BF000A093E001B093E10160E070E080E792E44F
:100C00000E9450038CED95E00E94D902C0E0D0E034
:100C10008CE697E00E94D90268EB7BE080E090E0F0
:100C20000E9478018CE494E00E94D90268EB7BE09A
:100C300080E090E00E947801209751F30E9400002C
:100C4000E7CF5058BB27AA270E9439060C94AC075F
:100C50000E949E0738F00E94A50720F039F49F3FBC
:100C600019F426F40C949B070EF4E095E7FB0C9422
:100C70009507E92F0E94BD0758F3BA17620773075B
:100C80008407950720F079F4A6F50C94DF070EF49D
:100C9000E0950B2EBA2FA02D0B01B90190010C018C
:100CA000CA01A0011124FF27591B99F0593F50F4A4
:100CB000503E68F11A16F040A22F232F342F4427FC
:100CC000585FF3CF469537952795A795F0405395F4
:100CD000C9F77EF41F16BA0B620B730B840BBAF0C4
:100CE0009150A1F0FF0FBB1F661F771F881FC2F72F
:100CF0000EC0BA0F621F731F841F48F48795779543
:100D00006795B795F7959E3F08F0B0CF9395880FFC
:100D100008F09927EE0F9795879508950E9471071F
:100D200008F481E008950E94A7060C94AC070E9485
:100D3000A50758F00E949E0740F029F45F3F29F074
:100D40000C94950751110C94E0070C949B070E949A
:100D5000BD0768F39923B1F3552391F3951B550B08
:100D6000BB27AA2762177307840738F09F5F5F4F7E
:100D7000220F331F441FAA1FA9F335D00E2E3AF0BD
:100D8000E0E832D091505040E695001CCAF72BD0D5
:100D9000FE2F29D0660F771F881FBB1F2617370726
:100DA0004807AB07B0E809F0BB0B802DBF01FF2758
:100DB00093585F4F3AF09E3F510578F00C94950799
:100DC0000C94E0075F3FE4F3983ED4F38695779563
:100DD0006795B795F7959F5FC9F7880F911D969511
:100DE000879597F90895E1E0660F771F881FBB1F6D
:100DF000621773078407BA0720F0621B730B840B1A
:100E0000BA0BEE1F88F7E09508950E94C50788F099
:100E10009F5798F0B92F9927B751B0F0E1F0660FBE
:100E2000771F881F991F1AF0BA95C9F714C0B130FF
:100E300091F00E94DF07B1E008950C94DF07672F5F
:100E4000782F8827B85F39F0B93FCCF3869577952E
:100E50006795B395D9F73EF4909580957095619517
:100E60007F4F8F4F9F4F0895E89409C097FB3EF442
:100E700090958095709561957F4F8F4F9F4F9923E7
:100E8000A9F0F92F96E9BB279395F6958795779565
:100E90006795B795F111F8CFFAF4BB0F11F460FF25
:100EA0001BC06F5F7F4F8F4F9F4F16C0882311F07D
:100EB00096E911C0772321F09EE8872F762F05C091
:100EC000662371F096E8862F70E060E02AF09A952C
:100ED000660F771F881FDAF7880F9695879597F921
:100EE0000895990F0008550FAA0BE0E8FEEF1616BB
:100EF0001706E807F907C0F012161306E407F5070E
:100F000098F0621B730B840B950B39F40A2661F081
:100F1000232B242B252B21F408950A2609F4A14024
:100F2000A6958FEF811D811D089597F99F6780E831
:100F300070E060E008959FEF80EC089500240A942B
:100F40001616170618060906089500240A941216A4
:100F50001306140605060895092E0394000C11F4D7
:100F6000882352F0BB0F40F4BF2B11F460FF04C084
:100F70006F5F7F4F8F4F9F4F089557FD9058440FDD
:100F8000551F59F05F3F71F04795880F97FB991FE8
:100F900061F09F3F79F087950895121613061406A5
:100FA000551FF2CF4695F1DF08C016161706180632
:100FB000991FF1CF86957105610508940895E8940D
:100FC000BB2766277727CB0197F908950E94710701
:100FD00008F48FEF08950E94FE070C94AC070E945E
:100FE0009E0738F00E94A50720F0952311F00C947D
:100FF00095070C949B0711240C94E0070E94BD07F1
:1010000070F3959FC1F3950F50E0551F629FF0015B
:10101000729FBB27F00DB11D639FAA27F00DB11D74
:10102000AA1F649F6627B00DA11D661F829F2227FD
:10103000B00DA11D621F739FB00DA11D621F839F84
:10104000A00D611D221F749F3327A00D611D231F5A
:10105000849F600D211D822F762F6A2F11249F57A8
:1010600050409AF0F1F088234AF0EE0FFF1FBB1FAB
:10107000661F771F881F91505040A9F79E3F51056A
:1010800080F00C9495070C94E0075F3FE4F3983EE2
:10109000D4F3869577956795B795F795E7959F5F14
:1010A000C1F7FE2B880F911D9695879597F90895A6
:1010B000EE0FFF1F0590F491E02D0994F894FFCFF7
:1010C0000000000039020C026802E2010502F20190
:0210D000E3013A
:00000001FF
